00000001DUPONT              JEAN           00025050
00000002MARTIN              SARAH          00032075
00000003BERNARD             PIERRE         00041500
00000004DURAND              ALICE          00028990
00000005LEFEVRE             NASSIM         00050125
